:020000040800F2
:1000000000000120B93C0008F5030008F7030008D0
:10001000F9030008FB030008FD03000800000000CE
:10002000000000000000000000000000FF030008C6
:100030000104000800000000030400080504000893
:10004000093D0008093D0008093D0008093D000878
:10005000093D0008093D0008093D0008093D000868
:10006000093D0008093D0008093D0008093D000858
:10007000093D0008093D0008093D0008093D000848
:10008000093D0008093D0008093D00080000000086
:10009000000000000000000000000000093D000812
:1000A000093D0008093D0008093D0008093D000818
:1000B000093D0008093D0008093D0008093D000808
:1000C000093D0008093D0008093D0008093D0008F8
:1000D000093D0008093D0008093D00080000000036
:1000E000093D0008093D0008093D00080000000026
:1000F000000000000000000000000000093D0008B2
:1001000000000000093D0008093D0008093D000805
:1001100000000000000000000000000000000000DF
:10012000093D0008093D0008093D0008093D000897
:10013000093D000800000000000000000000000071
:100140000000000000000000000000000D04000896
:10015000093D0008093D0008093D0008093D000867
:10016000093D0008093D00080000000000000000F3
:10017000000000000000000000000000000000007F
:1001800000000000093D0008000000000000000021
:04019000093D00081D
:1001940053B94AB9002908BF00281CBF4FF0FF31EA
:1001A4004FF0FF3000F00CB8ADF1080C6DE904CE4F
:1001B40003F0D6FDDDF804E0DDE9022304B0704766
:1001C400704700BF0348044B834202D0034B03B182
:1001D40018477047F8000020F800002000000000D5
:1001E4000548064B1B1AD90F01EBA301491002D095
:1001F400034B03B118477047F8000020F8000020B3
:100204000000000010B5064C237843B9FFF7DAFF6D
:10021400044B13B10448AFF300800123237010BDD5
:10022400F8000020000000002C40000808B5054B31
:100234001BB105490548AFF30080BDE80840FFF74E
:10024400CFBF00BF00000000FC0000202C400008CD
:1002540000B58BB00022059206920792089209928B
:1002640001921A4B196B41F004011963196B01F0E7
:100274000401019101990292196B41F08001196303
:10028400196B01F08001029102990392196B41F0FC
:1002940002011963196B01F002010391039904929D
:1002A4001A6B42F001021A631B6B03F001030493FF
:1002B400049B4FF4005305930123069305A90448B6
:1002C40002F0DCFA0BB05DF804FB00BF003802401A
:1002D4000008024008B502F047FC00F017F8FFF7E9
:1002E400B7FF00F0B5F8074C4FF6FF7363614FF4A6
:1002F400FA7002F065FC002363614FF4FA7002F0B7
:100304005FFCF0E70008024072B6FEE700B595B066
:100314003022002108A803F01BFD0023039304935B
:100324000593069307930193214A116C41F0805180
:100334001164126C02F080520192019A02931D4AD8
:10034400136823F4404343F400431360136803F435
:1003540040430293029B012308934FF48033099393
:1003640002230E934FF480030F930F2310939023D3
:100374001193042312930523139308A801F078FF23
:1003840088B90F23039302230493002305934FF4A6
:10039400805206920793012103A802F0B9F920B90B
:1003A40015B05DF804FBFFF7AFFFFFF7ADFF00BF2B
:1003B400003802400070004038B505460C4621461E
:1003C400284600F039F90128F9D038BD014B002244
:1003D4005A6170470008024008B589B2FFF7ECFF84
:1003E400024B4FF6FF725A6108BD00BF000802407D
:1003F400FEE7FEE7FEE7FEE7FEE77047704770475B
:1004040008B502F0CBFB08BD08B5024800F0DAFDE0
:1004140008BD00BFC00D002082B0002100910B4B2D
:100424005A6C42F480425A645A6C02F4804200923C
:10043400009A01911A6C42F080521A641B6C03F00A
:1004440080530193019B02B0704700BF0038024003
:1004540008B500220F49104802F0D0FB70B90F49CB
:100464000D4802F0E2FB60B90D490B4803F0C4FBF0
:1004740050B9094802F0F3FB48B908BDFFF744FF3F
:10048400EDE7FFF741FFEFE7FFF73EFFF1E7FFF787
:100494003BFFF2E700000020140100207000002060
:1004A4005000002012230B80004870471C000020DD
:1004B40004230B800048704730000020002393423F
:1004C4001ED200B510E00CF1370C01F813C0000186
:1004D4004FEA430C0CF1010C4FF0000E01F80CE054
:1004E4000133DBB2934209D24FEA107CB0F1204FC2
:1004F400E9D20CF1300C01F813C0E8E75DF804FB15
:100504007047000038B50B4BD3F8100AD3F8144ADF
:10051400D3F8183AC01800D138BD074D0822A91CD9
:10052400FFF7CCFF042205F112012046FFF7C6FFB6
:10053400F2E700BF0070FF1F3400002008B51A2343
:100544000B80FFF7DFFF014808BD00BF3400002027
:1005540008B50A4628B90549054803F0CCF803480C
:1005640008BD0249024803F0C6F8F8E7F00300208A
:100574004440000810B50A46034C2146034803F0E2
:10058400BAF8204610BD00BFF00300205C4000080C
:1005940008B50A4628B90549054803F0ACF80348EC
:1005A40008BD0249024803F0A6F8F8E7F00300206A
:1005B4007040000808B50A4628B90549054803F003
:1005C4009AF8034808BD0249024803F094F8F8E792
:1005D400F00300207C400008002070470020704792
:1005E4000020704770B504460D46FFF7EFFE074E36
:1005F4002146304603F019FB304603F03FFB2968DF
:100604002046FFF7E9FE002070BD00BF1401002062
:1006140010B5064C00220649204603F0F8FA0549B5
:10062400204603F002FB002010BD00BF140100208F
:10063400D8090020F0050020094BD3F8BC32D3F8C8
:1006440014320BB10120704710B5054C0A4601461F
:10065400204603F0DCFA204603F0F3FA10BD00BF95
:100664001401002030B589B000230393049305934B
:10067400069307930368B3F1A04F01D009B030BDCE
:1006840000250195164C236B43F001032363236B70
:1006940003F001030193019B4FF4C053039302231E
:1006A4000493032306930A23079303A90D4802F036
:1006B400E5F8636B43F0800363630295636C43F472
:1006C40080436364636C03F480430293029B2A4671
:1006D4002946432002F0C8F9432002F0FDF9CDE792
:1006E400003802400000024008B500F2C441D0F8CE
:1006F400080502F0CAFA08BD08B501EBC10300EB16
:100704008303D3F88C22D0F8080502F08BFB08BDD4
:1007140008B501EBC10300EB8303DA6CD0F80805DC
:1007240002F0E3FB08BD08B5D0F8080502F025FB8C
:1007340008BD10B50446C368022B09D10121D4F8C1
:10074400080502F000FBD4F8080502F0CAFA10BD4F
:10075400FFF7DAFDF2E7000010B50446D0F808050B
:1007640002F0F4FA2268D2F8003E43F00103C2F822
:10077400003E236A23B1034A136943F0060313615D
:1007840010BD00BF00ED00E008B5D0F8080502F088
:10079400E7FA08BD08B5D0F8080502F016FB08BD55
:1007A40008B5D0F8080502F0F9FA08BD08B5D0F884
:1007B400080502F021FB08BD08B5D0F8080502F0D1
:1007C4001DFB08BD02780AB10020704710B503462E
:1007D4001548C0F80835C3F8C8024FF0A0430360B9
:1007E400042343600222C260002303618261C36167
:1007F40003624362C362036300F0F0F880B90A4CF9
:100804008021204600F0E6FE40220021204600F030
:10081400BBFE80220121204600F0B6FE002010BD60
:10082400FFF772FDEBE700BFC00D0020D0F8C8321F
:1008340011F0800F08D101F07F0101EBC10103EB3E
:10084400810393F87E02704701F07F0101EBC1013F
:1008540003EB810393F83E00704708B5D0F8C80253
:1008640000F0DFFA08BD000000487047CC120020F9
:100874007047032805D8DFE800F0050402050120CD
:1008840070470320704708B5D0F8C80200F03DF95E
:10089400FFF7EFFF08BD08B594461A466346D0F843
:1008A400C80200F011FAFFF7E4FF08BD08B5D0F85C
:1008B400C80200F04EFAFFF7DCFF08BD08B5D0F817
:1008C400C80200F0E6FAFFF7D4FF08BD08B5D0F877
:1008D400C80200F022FBFFF7CCFF08BD08B5D0F832
:1008E400C80200F0DDF9FFF7C4FF08BD08B5D0F871
:1008F400C80200F09FFAFFF7BCFF08BD08B5D0F8A6
:10090400C80200F05FFAFFF7B4FF08BD2DE9F04319
:1009140083B0D0F8008001EBC10300EB8303DA6DF0
:100924005B6D9A4254D807460C469B1A01EBC102F0
:1009340000EB8202926C9A4200D31A4602F1030938
:100944004FEA990915E006F103094FEA990904EB06
:10095400C40507EB8505E96C3B7C0093B3B2E2B2B6
:10096400404601F006FAEB6C3344EB64EB6D334420
:10097400EB6508EB441303F510639B699BB24B458D
:1009840012D304EBC40307EB8303DA6D5B6D9A4265
:100994000AD24BB19B1A04EBC40207EB8202966C99
:1009A4009E42D0D31E46CEE704EBC40307EB830775
:1009B4007A6DFB6D9A420FD804F00F040122A24015
:1009C400D8F8343823EA0203C8F83438002000E0A9
:1009D400012003B0BDE8F0830020FAE770B58AB0C7
:1009E400002800F090800546046890F8BD343BB3BD
:1009F400032385F8BD34E36B13F4807F01D1002316
:100A04002B61286800F0D2FE2C4654F8106BEC469B
:100A14000FCCACE80F000FCCACE80F0094E8030057
:100A24008CE803002B1D0ECB304600F001FE04467B
:100A340058B1022385F8BD34012420460AB070BDA4
:100A440080F8BC34FFF70EFED2E70021286801F0DD
:100A54009EFB234616E003EBC30205EB8202012151
:100A640082F83D1082F83C30A2F84430002182F82C
:100A740040109164D16403EBC30205EB820251651B
:100A84000133DBB269688B42E5D316E004EBC4039F
:100A940005EB8303002283F87D2283F87C4283F8EC
:100AA4008022C3F88822C3F88C2204EBC40305EB2C
:100AB4008303C3F894220134E4B2A142E6D82C465D
:100AC40054F8106BEC460FCCACE80F000FCCACE83C
:100AD4000F0094E803008CE803002B1D0ECB304676
:100AE40000F0C0FE044620B1022385F8BD34012481
:100AF400A3E7002385F83830012385F8BD3428683E
:100B040001F004FB99E7012497E7026890F8BC34EC
:100B1400012B19D010B50446012380F8BC34836A34
:100B2400012B09D0206800F03BFE206801F0E0FAB8
:100B3400002084F8BC0410BD8369012BF2D0936BB0
:100B440043F480339363EDE70220704770B50446A5
:100B54000D460068066C00EB411303F530639A6898
:100B64002169012911D038498E4256D03DB905EB8F
:100B7400C50304EB8303D3F89432002B5ED0E9B2AF
:100B84002046FFF7B9FD002070BD12F0080F09D010
:100B94002E498E42F7D912F4004FF4D04FF400429C
:100BA4009A60F0E712F0200F02D020229A60EAE760
:100BB40012F0280FE7D125498E4206D912F4004FCE
:100BC40003D04FF400429A60DDE705EBC50204EB65
:100BD4008202D2F898121B69C3F31203CB1AC2F82B
:100BE4009C327DB905EBC50204EB8202D2F8942253
:100BF4006AB105EBC50204EB8202D2F88C121944E7
:100C0400C2F88C12E9B22046FFF776FDBBE704F286
:100C1400C442012101F0FCFAF4E712F4004F03D0BE
:100C24004FF400429A60AEE712F0200F01D0202268
:100C34009A60E9B22046FFF75FFDA4E704F2C442DC
:100C4400002101F0E5FA9AE70A31544F0A30544F73
:100C540038B5044603681D6C03EB4113D3F8081B35
:100C64000E4A954207D903F5306311F4004F02D0C0
:100C74004FF400429A602046FFF736FD074B9D4231
:100C840002D92369012B01D0002038BD04F2C442EB
:100C94000121206801F0BCFAF6E700BF0A30544F86
:100CA40090F8BC34012B0DD010B50446012380F814
:100CB400BC3480F83810006801F00AFA002084F887
:100CC400BC0410BD0220704738B505468C4611F0AF
:100CD400800F29D101F00F0E0EEBCE04A40004F511
:100CE4001E740444211D0EEBCE0E00EB8E0E00206C
:100CF4008EF87D020CF00F0C81F800C0CA600B71F5
:100D04004A780AB1A1F808C0022B1DD095F8BC346A
:100D1400012B1CD0012385F8BC34286800F07BFE2D
:100D2400002085F8BC0438BD01F00F0000EBC001C1
:100D3400890038312944043100EBC00005EB800000
:100D4400012480F83D40D5E700234B71DEE7022003
:100D5400E9E710B504460A4611F0800F20D101F0EE
:100D64000F0000EBC0039B0003F51E732344191D01
:100D740000EBC00004EB8000002380F87D3202F019
:100D84000F020A7094F8BC34012B19D0012384F8A3
:100D9400BC34206800F08CFE002084F8BC0410BD34
:100DA40001F00F0000EBC0039B0038332344191DEE
:100DB40000EBC00004EB8000012380F83D30DEE747
:100DC4000220ECE710B501F00F0404EBC401890024
:100DD40001F51E710144043104EBC40C00EB8C0CCE
:100DE400CCF88C22CCF894320023CCF89C328CF8CA
:100DF4007D328CF87C420369012B06D064B9DAB2E7
:100E0400006800F0C5FE002010BD04EBC40C00EB2C
:100E14008C0CCCF89022F1E7DAB2006800F0C0FF45
:100E2400F1E701F00F0101EBC10100EB8100D0F803
:100E34009C02704710B501F00F0404EBC401890053
:100E440038310144043104EBC40C00EB8C0CCCF8B5
:100E54004C20CCF854300023CCF85C3001238CF8BF
:100E64003D308CF83C400369012B06D064B9DAB2FA
:100E7400006800F08DFE002010BD04EBC40C00EBF4
:100E84008C0CCCF85020F1E7DAB2006800F088FF4F
:100E9400F1E738B501F00F054268954239D80446A8
:100EA4000B4611F0800F1FD101EBC101890001F540
:100EB4001E710144043103EBC30300EB83030022DE
:100EC40083F87D2201238B700D7094F8BC34012BC0
:100ED40021D0012384F8BC34206801F09EF88DB140
:100EE400002084F8BC0438BD05EBC5018900383105
:100EF4000144043105EBC50300EB8303012283F8AD
:100F04003D20DFE704F2C442217C206801F080F92F
:100F1400E6E70120E7E70220E5E701F00F03426876
:100F2400934231D810B5044611F0800F1ED103EB63
:100F3400C301890001F51E710144043103EBC302AE
:100F440000EB8202002082F87D0200228A700B707E
:100F540094F8BC34012B19D0012384F8BC342068E4
:100F640001F088F8002084F8BC0410BD03EBC30131
:100F7400890038310144043103EBC30200EB8202DF
:100F8400012082F83D00E0E7012070470220ECE7F1
:100F940008B511F0800F0CD101F00F0101EBC10174
:100FA400890001F51E7101440431006800F082FEDD
:100FB40008BD01F00F0101EBC10189003831014482
:100FC4000431F2E72DE9F04F83B004460568284662
:100FD40001F0D9F810B103B0BDE8F08F06462068DF
:100FE40001F0A2F80028F6D005F50067BB68C3F34A
:100FF4000D23C4F8FC34206801F096F810F0020FB9
:1010040004D02268536903F002035361206801F09D
:101014008BF810F0100F13D02268936923F010039B
:101024009361D5F8208008F00F09C8F34343022BDD
:101034004BD0062B6FD02268936943F01003936161
:10104400206801F071F810F4002F76D1206801F0C7
:101054006BF810F4802F40F0E080206801F064F811
:101064000028C0F26381206801F05EF810F4006F7C
:1010740009D0BB6813F0010F40F0708122685369F6
:1010840003F400635361206801F04EF810F4805FAC
:1010940040F06881206801F047F810F4005F40F0E8
:1010A400B581206801F040F810F0080F40F0C681C7
:1010B400206801F039F810F0800F00F0D981AB6995
:1010C40023F08003AB610126C2E147F6F07318EA0E
:1010D400030FB0D04FEA181B4FEAC903019309EB81
:1010E400C90A04EB8A0AC8F30A12DAF88C122846F1
:1010F40000F070FFCBF30A0BDAF88C325B44CAF8C9
:101104008C32019B4B4404EB8303D3F89C325B4445
:10111400CAF89C328FE7082204F2C441284600F042
:1011240059FFC8F30A1809EBC90204EB8202D2F88A
:101134009C324344C2F89C327DE7206800F0F8FFFB
:101144008046B14635E005EB49130122C3F8082B6C
:1011540049462046FFF7FAFC3CE005EB4913082218
:10116400C3F8082B49462046FFF772FD35E009EB2A
:10117400C90304EB830393F87F32012B41D005EBC1
:1011840049130222C3F8082B1AF0200F04D005EBF0
:1011940049132022C3F8082B1AF4005F05D005EB8D
:1011A40049134FF40052C3F8082B09F101094FEA1F
:1011B4005808B8F1000F3FF449AF18F0010FF4D00C
:1011C4005FFA89FB5946206800F0C2FF824610F09E
:1011D400010FB8D11AF0080FBFD11AF0100F04D0C4
:1011E40005EB49131022C3F8082B1AF0020FCBD0D9
:1011F4006B6913F0800FBAD07B6843F480637B6023
:10120400B5E709EBC90304EB8303002283F87F22CB
:1012140059462046FFF7BEFAB1E7206800F090FF78
:101224008046B14625E059462046FFF771FA1AF088
:10123400080F04D005EB49130822C3F808291AF053
:10124400100F04D005EB49131022C3F808291AF033
:10125400400F04D005EB49134022C3F808291AF0C3
:10126400020F40D11AF0800F5BD109F101094FEA56
:101274005808B8F1000F3FF4F0AE18F0010FF4D0A5
:101284005FFA89FB5946206800F06BFF824610F034
:10129400010FCCD009F00F02012101FA02F27B6B9D
:1012A40023EA02037B6305EB4913C3F80819236996
:1012B4008B42B8D109EBC90304EB8303996CDA6C54
:1012C4000A44DA64B9F1000FADD109EBC90304EBA8
:1012D40083035B6D002BA6D104F2C4420121206874
:1012E40000F096FF9FE74946284600F065FA09EBAF
:1012F400C90304EB830393F83F30012B05D005EBBE
:1013040049130222C3F80829ACE709EBC90304EB2B
:101314008303002283F83F2059462046FFF740FA12
:10132400EDE749462046FFF7F1FA9EE77B6823F094
:1013340001037B6094F8F434012B08D02046FFF7B6
:1013440023FA2268536903F0004353618BE60021BA
:1013540084F8F414204600F041F9F2E72046FFF740
:10136400FBF98BE67B6823F001037B601021206886
:1013740000F022FA1AE005EB46134FF67F31C3F86A
:101384000819D3F8002922F40012C3F80029C3F87D
:10139400081BD3F8002B22F40012C3F8002BD3F857
:1013A400002B42F00062C3F8002B01366368B3429D
:1013B400E1D8FB6943F00113FB61236BDBB1D7F880
:1013C400843043F00B03C7F884307B6C43F00B0389
:1013D4007B64D5F8003823F4FE63C5F8003804F2C2
:1013E400C442217C206800F013FF2268536903F48F
:1013F400805353614EE67B6943F4005343F02B035F
:101404007B613B6943F00B033B61E2E7206800F03A
:10141400EFFE206800F0EEFAE060266801F028FA9A
:101424000146227B304600F049F92046FFF781F956
:101434002268536903F40053536132E62046FFF7F0
:1014440072F92268536903F00803536130E60136E8
:101454006368B3420CD906EBC60304EB830393F829
:101464007F32012BF3D1F1B22046FFF791FDEEE775
:10147400206800F059FE10F4801F27D1206800F086
:1014840053FE10F4001F5BD0012328E0013663688B
:10149400B3421DD905EB4613D3F8002906EBC60366
:1014A40004EB830393F84030012BEFD1002AEDDAEB
:1014B40006EBC60304EB8303012283F83F2066F0A6
:1014C4007F01C9B22046FFF763FDDFE70126DEE7AF
:1014D4002268536903F480135361CFE701336268D0
:1014E4009A4228D905EB4312D2F8001B03EBC3023E
:1014F40004EB820292F88022012AEFD10029EDDA6E
:1015040001F48031D4F8FC2402F001029142E5D1C7
:1015140003EBC30204EB8202012182F87F12AA6961
:1015240042F08002AA616A6912F0800FD6D17B680A
:1015340043F400737B602268536903F4001353611E
:10154400206800F0F1FD10F0804F10D1206800F009
:10155400EBFD10F0040F3FF43EAD23685D6815F019
:10156400040F0DD1226853682B43536033E52046A2
:10157400FFF71CF92268536903F080435361E5E7E0
:101584002046FFF719F9EDE710B40468606A31B931
:1015940040EA0240A06200205DF8044B70478C468C
:1015A400A36A00EB1340002308E003F1400104EBBD
:1015B4008101496800EB11400133DBB20CF1FF31CA
:1015C4008B42F2D340EA02400CF13F0104EB810468
:1015D4006060E0E7036859620020704770470000CC
:1015E40082B000230193019B01330193019A0F4BB5
:1015F4009A4215D80369002BF5DA00230193036995
:1016040043F001030361019B01330193019A074BEA
:101614009A4208D8036913F0010FF4D1002000E0C6
:10162400032002B070470320FBE700BF400D030016
:1016340084B010B5044603A880E80E00089B012B73
:101644001FD1A36B23F48033A363E36823F48403DF
:1016540023F04003E360E36823F44013E3600F9B4B
:10166400012B09D02046FFF7BBFF069B012B1BD0A3
:10167400BDE8104004B07047E36843F48013E360AE
:10168400F0E7E36843F04003E3602046FFF7A8FF78
:101694000C9B23B9A36B43F48033A363E5E7A36BEB
:1016A40023F48033A363E0E7A36843F00603A36055
:1016B400A36843F02003A360DAE70000022A0AD0FB
:1016C4000922C36823F47053C360C36843EA8223C6
:1016D400C36000207047234B0B44234A93422FD905
:1016E400224B0B44224A93422CD9A1F57403A3F54F
:1016F4001053204A934227D9A1F18373A3F5E743FA
:101704001D4A934222D31D4B0B441D4A93421FD9B9
:101714001C4B0B441C4A93421CD31C4B0B441C4AC9
:10172400934219D3A1F1B773A3F55853194A9342BD
:1017340014D3194B0B44194A934211D20722C0E720
:101744000F22BEE70E22BCE70D22BAE70C22B8E74F
:101754000B22B6E70A22B4E70922B2E70822B0E76F
:101764000622AEE7405327FFFF340C00401E1BFF48
:101774003F420F007F4F120020D6130060B6E5FEF3
:101784005FE3160000D3CEFE40771B00C05BB3FEC0
:10179400C091210020753800E05459FEE09C4100BE
:1017A400836843F00103836000207047836823F05B
:1017B400010383600020704782B000230193019BE2
:1017C40001330193019A0F4B9A4215D80369002BF8
:1017D400F5DA00230193890141F020010161019BA5
:1017E40001330193019A074B9A4208D8036913F015
:1017F400200FF4D1002000E0032002B07047032042
:10180400FBE700BF400D030082B000230193019B5E
:1018140001330193019A0E4B9A4213D80369002BAA
:10182400F5DA0023019310230361019B0133019333
:10183400019A074B9A4208D8036913F0100FF4D1A8
:10184400002000E0032002B070470320FBE700BF44
:10185400400D0300D0F800381943C0F800180020E8
:101864007047000084B02DE9F041044607A880E8E1
:101874000E00002306E003F1400204EB8202002183
:10188400516001330E2BF6D9119F27BBD4F80438CD
:1018940043F00203C4F80438A36B43F40013A363B6
:1018A400A36B23F40023A363A36B23F48023A36318
:1018B4000023C4F8003E04F50065D4F80038C4F8E9
:1018C40000380C9B012B14D1099B6BB900212046D5
:1018D400FFF7C0FF11E0A36B23F40013A363A36B12
:1018E40043F40023A363E3E701212046FFF7B2FF9B
:1018F40003E003212046FFF7ADFF10212046FFF748
:101904005BFF804608B14FF001082046FFF77CFFDB
:1019140008B14FF0010800232B616B61EB610AE011
:10192400C3B94FF00060C2F8000900220A614FF603
:101934007F328A6001330799994210D904EB43122C
:1019440002F51061D2F800090028E9DB0020C2F892
:101954000009EAE74FF09040C2F80009E5E70023E8
:101964000AE0C3B14FF0904CC2F800CB00220261F0
:101974004FF67F3282600133994211D904EB43124E
:1019840002F53060D2F8006B002EEADB4FF0000C59
:10199400C2F800CBEAE74FF0006CC2F800CBE5E7F1
:1019A4002B6923F480732B610023A3616FF08043C0
:1019B40063610A9B1BB9A36943F01003A361A26985
:1019C4000B4B1343A3610D9B1BB1A36943F00803A5
:1019D400A361012F04D04046BDE8F04104B0704734
:1019E400A36943F0804343F00403A361F3E700BF1A
:1019F40000383C80D0F8083813F0060307D0022BD7
:101A040007D0062B01D00F2070470220704700201A
:101A140070470220704710B591F800C04B78012B35
:101A240023D000F5006ED0F81C380CF00F0401220E
:101A3400A24043EA0243C0F81C3800EB4C10D0F833
:101A4400003B13F4004F0ED1D0F8003BCA68C2F338
:101A54000A02097942EA8142134343F0805343F472
:101A64000043C0F8003B002010BDD0F81C280CF047
:101A74000F0E03FA0EF39BB21343C0F81C3800EBAD
:101A84004C10D0F8003913F4004FECD1D0F80039E1
:101A9400CA68C2F30A02097942EA814242EA8C52D4
:101AA400134343F0805343F40043C0F80039DAE7AA
:101AB40030B40B784A78012A26D000EB4313D3F8CC
:101AC400002B002A52DBD0F83C480A7802F00F02BF
:101AD4004FF0010C0CFA02F224EA0242C0F83C284E
:101AE400D0F81C28097801F00F010CFA01FC22EA55
:101AF4000C42C0F81C28D3F8001B234A0A40C3F840
:101B0400002B002030BC704700EB4313D3F80029AE
:101B1400002A1EDBD0F83C580A7802F00F02012498
:101B240004FA02F292B225EA0202C0F83C28D0F884
:101B34001C28097801F00F018C40A4B222EA0402A7
:101B4400C0F81C28D3F80019104A0A40C3F8002929
:101B5400D7E7D3F8002942F00062C3F80029D3F88C
:101B6400002942F08042C3F80029D3E7D3F8002BC0
:101B740042F00062C3F8002BD3F8002B42F08042FD
:101B8400C3F8002B9FE700BF0078F3EF007833EC35
:101B940070B40B784C78012C29D000EB431000F57D
:101BA40030631C69E40CE4041C611C6924F0FF54D8
:101BB40024F4C0141C618C690CB1CC688C61CC68B1
:101BC400CC611C6944F400241C611C69CD69C5F313
:101BD400120C44EA0C041C61012A66D0D0F8003BC4
:101BE40043F00443C0F8003B002070BC70478C698C
:101BF4006CBB00EB4314D4F8105925F0FF5525F4C1
:101C0400C015C4F81059D4F8105945F40025C4F887
:101C14001059D4F81059ED0CED04C4F81059012AE8
:101C240034D000EB4313D3F8002942F00442C3F844
:101C340000298B69002BD7D0D0F83438097801F00B
:101C44000F0101228A401343C0F83438CCE700EB7B
:101C5400431404F510642569ED0CED042561256930
:101C640025F0FF5525F4C0152561CD688E69AE4277
:101C740000D98D61256945F40025256125698E69A2
:101C8400C6F3120C45EA0C052561C8E74A691AB186
:101C940000EB4311C1F8142900EB4313D3F80029D6
:101CA40042F00442C3F800299EE70A69002A95D04D
:101CB4005A6193E710B483B0024600230193487835
:101CC40001280BD00B7802EB4313D3F8000B002848
:101CD4002DDB002003B05DF8044B70470B7802EB5A
:101CE4004313D3F80049002C01DB0020F2E7D3F8BA
:101CF400004944F00064C3F800490B7802EB431335
:101D0400D3F8004944F08044C3F80049019B0133EF
:101D14000193019C42F210739C42DBD80B7802EBD6
:101D24004313D3F80039002BF0DB0020D2E7D3F8BB
:101D3400000B40F00060C3F8000B0B7802EB431378
:101D4400D3F8000B40F08040C3F8000B019B013333
:101D54000193019842F21073984208D80B7802EB71
:101D64004313D3F8003B002BF0DB0020B2E7012043
:101D7400B0E710B59DF8084084B903334FEA930ED9
:101D84004FF0000C08E000EB023303F5805351F8E8
:101D9400044B1C600CF1010CF445F4D3002010BD7D
:101DA400F0B583B00B784C78012C33D000EB43139F
:101DB40003F5306CDCF81040E40CE404CCF810407B
:101DC400DCF8104024F0FF5424F4C014CCF8104084
:101DD4008C69002C40F0C780DCF81040CD68C5F356
:101DE40012052C43CCF81040DCF8104044F40024D5
:101DF400CCF81040012A00F0D0800A79012A00F0C2
:101E0400D380D3F8002B42F00442C3F8002B002007
:101E140003B0F0BD8C6984BB00EB4314D4F81059B3
:101E240025F0FF5525F4C015C4F81059D4F81059FD
:101E340045F40025C4F81059D4F81059ED0CED04FC
:101E4400C4F81059012A4CD000EB4313D3F80049CD
:101E540044F00444C3F800490C79012C6AD08B691E
:101E6400002BD4D0D0F83438097801F00F010122C6
:101E74008A401343C0F83438C9E700EB4314D4F85C
:101E84001059ED0CED04C4F81059D4F8105925F08C
:101E9400FF5525F4C015C4F81059D4F810698D699C
:101EA400CF683D44013DB5FBF7F5494F07EAC54509
:101EB4003543C4F81059D4F810598E69C6F3120684
:101EC4003543C4F8105904F510640D79012DB9D1C6
:101ED400256925F0C0452561256945F00055256132
:101EE400B0E74A691AB100EB4314C4F814290A791B
:101EF400012A08D000EB4313D3F8002942F004422E
:101F0400C3F8002983E7D0F8082812F4807F08D1A9
:101F140000EB4311D1F8002942F00052C1F8002926
:101F2400E8E700EB4311D1F8002942F08052C1F8F0
:101F34000029DFE7D0F8084814F4807F0CD1D3F8E7
:101F4400004944F00054C3F8004900920B8B0A780E
:101F54000969FFF70EFF5AE7D3F8004944F08054AB
:101F6400C3F80049F1E7CD682C44013CB4FBF5F417
:101F7400A4B204FB05F5CD61DCF81050144E06EA5A
:101F8400C4442C43CCF81040DCF81040CD69C5F3B0
:101F940012052C43CCF810402CE70A69002A3FF4C0
:101FA4002CAFCCF8142028E7D0F8082812F4807F4E
:101FB40006D1D3F8002B42F00052C3F8002B20E7DF
:101FC400D3F8002B42F08052C3F8002B19E700BF6E
:101FD4000000F81F10B5844608464FEA920E02F03E
:101FE4000302002305E00CF58051096840F8041B46
:101FF40001337345F7D37AB10CF5805CDCF800400B
:102004000021CBB2DB0024FA03F300F8013B0131D9
:10201400013A92B2002AF4D110BD0B784A78012A11
:1020240014D000EB4310D0F8002B002A06DB2BB1B0
:10203400D0F8003B23F08043C0F8003BD0F8003BCD
:1020440043F40013C0F8003B0020704700EB43103A
:10205400D0F80029002A06DB2BB1D0F8003923F090
:102064008043C0F80039D0F8003943F40013C0F8B5
:102074000039E9E70B784A78012A0ED000EB4310C7
:10208400D0F8003B23F40013C0F8003B0B79023B6B
:10209400DBB2012B15D90020704700EB4310D0F8B8
:1020A400003923F40013C0F800390B79023BDBB28A
:1020B400012BF0D8D0F8003943F08053C0F8003930
:1020C400E9E7D0F8003B43F08053C0F8003BE2E777
:1020D400D0F8003823F4FE63C0F80038D0F8003894
:1020E400090101F4FE610B43C0F800380020704779
:1020F400D0F8003E23F00303C0F8003ED0F80438C3
:1021040023F00203C0F8043800207047D0F8003EE2
:1021140023F00303C0F8003ED0F8043843F0020370
:10212400C0F8043800207047426980691040704745
:10213400D0F8183800F50060C0691840000C7047EA
:10214400D0F8183800F50060C069184080B27047B4
:1021540000EB4111D1F8082B00F5006040691040F4
:102164007047D0F81028D0F8343801F00F0C23FA57
:102174000CF3DB01DBB2134300EB411000F51060FC
:10218400806818407047406900F00100704738B516
:102194000546C36823F0C043C360012913D019BBAB
:1021A400C36843F08043C3600024012000F008FDAD
:1021B40001342846FFF7E7FF08B1312CF5D9322C5A
:1021C40014D0002038BDC36843F00053C36000241A
:1021D400012000F0F5FC01342846FFF7D4FF012864
:1021E400EDD0312CF4D9EAE70120EBE70120E9E74F
:1021F400D0F8003923F4FF6323F00703C0F8003953
:10220400D0F8043843F48073C0F8043800207047D1
:1022140010B4046C154B9C4203D9D0F8003B002B3E
:1022240016DB0024C0F8104BD0F8104B44F4002403
:10223400C0F8104BD0F8104B44F01804C0F8104B01
:10224400D0F8104B44F0C044C0F8104B012903D01F
:1022540000205DF8044B7047C0F8142BD0F8003B05
:1022640043F08023C0F8003BF2E700BF0A30544F2C
:10227400002800F0E08170B582B00446036813F0D2
:10228400010F3BD09F4B9B6803F00C03042B2CD015
:102294009C4B9B6803F00C03082B21D06368B3F5B7
:1022A400803F4FD0B3F5A02F52D0964B1A6822F43A
:1022B40080321A601A6822F480221A606368002B44
:1022C40050D000F077FC05468E4B1B6813F4003F9A
:1022D40014D100F06FFC401B6428F5D90320B1E150
:1022E400884B5B6813F4800FD8D0864B1B6813F4BB
:1022F400003F03D06368002B00F09F81236813F034
:10230400020F54D07F4B9B6813F00C0F3ED07D4BD3
:102314009B6803F00C03082B33D0E368002B68D0D0
:10232400794B01221A6000F045FC0546754B1B6889
:1023340013F0020F54D100F03DFC401B0228F5D9E4
:1023440003207FE16F4A136843F480331360B5E7D9
:102354006C4B1A6842F480221A601A6842F4803284
:102364001A60ABE700F026FC0546664B1B6813F4C5
:10237400003FC3D000F01EFC401B6428F5D90320A5
:1023840060E1604B5B6813F4800FC6D15D4B1B6842
:1023940013F0020F03D0E368012B40F05081594A37
:1023A400136823F0F803216943EAC1031360236827
:1023B40013F0080F42D063696BB3534B0122C3F887
:1023C400802E00F0F7FB05464E4B5B6F13F0020FB7
:1023D40034D100F0EFFB401B0228F5D9032031E192
:1023E400484A136823F0F803216943EAC1031360E0
:1023F400DDE7454B00221A6000F0DCFB0546414B4B
:102404001B6813F0020FD2D000F0D4FB401B02284B
:10241400F5D9032016E13C4B0022C3F8802E00F0CE
:10242400C9FB0546374B5B6F13F0020F06D000F073
:10243400C1FB401B0228F5D9032003E1236813F0F4
:10244400040F77D02F4B1B6C13F0805F33D1002324
:1024540001932C4B1A6C42F080521A641B6C03F0EB
:1024640080530193019B0125284B1B6813F4807F43
:1024740023D0A368012B34D0052B38D0214B1A6FFD
:1024840022F001021A671A6F22F004021A67A36885
:10249400002B3DD000F08EFB06461A4B1B6F13F049
:1024A400020F46D100F086FB801B41F2883398422C
:1024B400F3D90320C6E00025D6E7144A136843F491
:1024C4008073136000F076FB0646104B1B6813F410
:1024D400807FCED100F06EFB801B0228F5D903204B
:1024E400B0E0084A136F43F001031367CFE7054BCD
:1024F4001A6F42F004021A671A6F42F001021A6757
:10250400C5E700BF003802400000474200700040A9
:1025140000F050FB0646524B1B6F13F0020F08D01D
:1025240000F048FB801B41F288339842F3D9032022
:1025340088E0EDB9A369002B00F08380484A9268D3
:1025440002F00C02082A51D0022B17D0454B00226E
:102554001A6600F02FFB0446414B1B6813F0007F02
:1025640042D000F027FB001B0228F5D9032069E0C4
:102574003B4A136C23F080531364DBE7394B00228E
:102584001A6600F017FB0546354B1B6813F0007FF5
:1025940006D000F00FFB401B0228F5D9032051E0C0
:1025A400E369226A1343626A43EA8213A26A520805
:1025B400013A43EA0243E26A43EA0263284A536067
:1025C400284B01221A6600F0F5FA0446244B1B68D6
:1025D40013F0007F06D100F0EDFA001B0228F5D9B4
:1025E40003202FE000202DE000202BE0012B2BD036
:1025F4001B4B5B6803F48001E269914226D103F02E
:102604003F02216A8A4223D1616A47F6C0721A40A6
:10261400B2EB811F1ED103F44031A26A5208013A81
:10262400B1EB024F18D103F07063E26AB3EB026FAF
:1026340014D1002006E001207047012002E00120AF
:1026440000E0002002B070BD0120FBE70120F9E7A3
:102654000120F7E70120F5E70120F3E70120F1E786
:10266400003802400000474208B5264B9B6803F03F
:102674000C03042B41D0082B41D1224B5A6802F0A1
:102684003F025B6813F4800F12D01E4B5968C1F3EC
:1026940088111D480023A1FB0001FDF779FD194BAA
:1026A4005B68C3F3014301335B00B0FBF3F027E045
:1026B400144B5868C0F388104FEA401CBCEB000C64
:1026C4006EEB0E0E4FEA8E1343EA9C634FEA8C11B5
:1026D400B1EB0C0163EB0E03DB0043EA5173C90059
:1026E40011EB000C43F10003990200234FEA8C2004
:1026F40041EA9C51FDF74CFDD1E7034800E0034853
:1027040008BD00BF0038024040787D010024F40079
:10271400002800F09B8070B50D4604464F4B1B68A3
:1027240003F007038B4208D2CBB24C4A13701368F0
:1027340003F007038B4240F08B80236813F0020FF1
:1027440017D013F0040F04D0454A936843F4E053C0
:102754009360236813F0080F04D0414A936843F44C
:10276400604393603E4A936823F0F003A1680B43EF
:102774009360236813F0010F32D06368012B21D0DA
:102784009A1E012A25D9364A126812F0020F61D026
:1027940033498A6822F0030213438B6000F00AFA7B
:1027A40006462F4B9B6803F00C036268B3EB820F61
:1027B40016D000F0FFF9801B41F288339842F0D91B
:1027C400032042E0264A126812F4003FE0D10120BF
:1027D4003BE0234A126812F0007FD9D1012034E093
:1027E4001E4B1B6803F00703AB4207D9EAB21B4B2D
:1027F4001A701B6803F00703AB422DD1236813F052
:10280400040F06D0164A936823F4E053E1680B439F
:102814009360236813F0080F07D0114A936823F4D8
:102824006043216943EAC1039360FFF71DFF0C4B2A
:102834009B68C3F303130B4AD35CD8400A4B18605C
:102844000A4B186800F06AF9002070BD0120704737
:102854000120FAE70120F8E70120F6E7003C0240F6
:10286400003802408C4000086C0000206800002002
:10287400014B1868704700BF6C00002000230F2B29
:1028840000F2D78070B582B065E085684FEA430EE8
:10289400032404FA0EF425EA0405CC6804FA0EF4C1
:1028A4002C438460446824EA02044A68C2F3001298
:1028B4009A40224342605CE0DC08083450F824204B
:1028C40003F00705AD004FF00F0E0EFA05FE22EAE5
:1028D4000E0E0A69AA4042EA0E0240F824205CE087
:1028E400042200E0002202FA0EF22A430234514D7F
:1028F40045F82420504A94686FEA0C0224EA0C0537
:102904004E6816F4801F01D04CEA04054A4CA560B9
:10291400E46802EA04054E6816F4001F01D04CEA8C
:102924000405454CE560646802EA04054E6816F443
:10293400003F01D04CEA04053F4C65602468224006
:102944004D6815F4803F01D04CEA04023A4C2260F1
:1029540001330F2B6BD801229A400C6804EA020C55
:1029640032EA0404F4D14C6804F00304013C012C61
:102974008BD94A6802F00302032A09D0C4685D00B7
:102984000322AA4024EA02048A68AA402243C260BD
:102994004A6802F00302022A8ED004684FEA430E0A
:1029A400032202FA0EF224EA02044A6802F0030245
:1029B40002FA0EF2224302604A6812F4403FC7D082
:1029C400002201921D4A546C44F480445464526CB5
:1029D40002F480420192019A9C08A51C154A52F8FF
:1029E400255003F0030E4FEA8E0E0F2202FA0EF268
:1029F40025EA0205124A90423FF474AF02F5806260
:102A040090420ED002F5806290420CD002F58062B2
:102A140090420AD002F5806290423FF461AF0722EF
:102A240061E701225FE702225DE703225BE702B070
:102A340070BD704700380140003C0140003802403E
:102A440000000240074AD36823F4E0631B041B0C14
:102A5400000200F4E060034343F0BF6343F4003337
:102A6400D360704700ED00E000B5194BDB68C3F399
:102A74000223C3F1070CBCF1040F28BF4FF0040C70
:102A840003F1040EBEF1060F18D9033B4FF0FF3ECD
:102A94000EFA0CFC21EA0C0199400EFA03FE22EA1C
:102AA4000E020A4300280BDB1201D2B200F160408F
:102AB40000F5614080F800235DF804FB0023E5E79E
:102AC40000F00F001201D2B2024B1A54F4E700BF17
:102AD40000ED00E014ED00E0002807DB00F01F0229
:102AE400400901239340024A42F82030704700BF56
:102AF40000E100E00138B0F1807F0BD24FF0E02319
:102B04005861054AF02182F82310002098610722B9
:102B14001A6170470120704700ED00E010B50446CB
:102B24000E4B1A784FF47A73B3FBF2F30C4A106825
:102B3400B0FBF3F0FFF7DEFF68B90F2C01D90120D9
:102B44000AE0002221464FF0FF30FFF78DFF054BCE
:102B54001C60002000E0012010BD00BF64000020C4
:102B64006C0000206800002008B50B4B1A6842F482
:102B740000721A601A6842F480621A601A6842F499
:102B840080721A600320FFF75DFF0F20FFF7C6FF76
:102B9400FDF742FC002008BD003C0240034A1168D6
:102BA400034B1B780B441360704700BFEC140020E8
:102BB40064000020014B1868704700BFEC1400202B
:102BC40038B50446FFF7F6FF0546B4F1FF3F02D0DF
:102BD400044B1B781C44FFF7EDFF401BA042FAD3C3
:102BE40038BD00BF64000020034AD2F8883043F4A3
:102BF4007003C2F88830704700ED00E098B108B562
:102C040003460020C3F8B802C3F8C402C3F8D002D4
:102C140009B1C3F8B412012183F89C121A70184642
:102C2400FDF7D0FD08BD0320704710B582B0002326
:102C3400ADF8063089B10446C0F8B812CB6A23B1A6
:102C44000DF106009847C4F8D002D4F8D832013305
:102C5400C4F8D832002002B010BD0320FBE708B549
:102C6400FDF711FE08BD08B5D0F8B83213B11B68E2
:102C7400984708BD0020FCE708B5D0F8B8325B6877
:102C8400984700B908BD0320FCE738B5044600F2B4
:102C9400AA25284600F0C4F90123C4F89432B4F8F4
:102CA400B032C4F8983294F8AA1201F01F03012B31
:102CB4000DD0022B10D02BB101F080012046FDF77E
:102CC400FDFD03E02946204600F080FB38BD29467F
:102CD400204600F0B6FBF9E72946204600F0F3FB56
:102CE400F4E7F8B50446012380F89C320023C0F8C9
:102CF40094324360C0F8A43280F8A032D0F8B832DD
:102D0400DBB15B68DBB1002198470746C8B94023B3
:102D1400002211462046FDF7BEFD0126A4F8646199
:102D24004025C4F860512B46002280212046FDF73F
:102D3400B2FDA68425623846F8BD0027E7E70027E0
:102D4400E5E70327E3E701740020704790F89C321D
:102D5400DBB280F89D32042380F89C320020704757
:102D640090F89C32DBB2042B01D00020704790F81D
:102D74009D32DBB280F89C32F7E708B590F89C32BC
:102D8400DBB2032B01D0002008BDD0F8B832002BF1
:102D9400F9D0DB69002BF6D09847F4E708B5D0F8F2
:102DA400D432AE3350F823205AB190F89C32DBB2BF
:102DB400032B01D0002008BD136A23B198470020DB
:102DC400F9E70320F7E70020F5E708B5D0F8D43297
:102DD400AE3350F823205AB190F89C32DBB2032B67
:102DE40001D0002008BD536A23B198470020F9E7B9
:102DF4000320F7E70020F5E70020704708B501231A
:102E040080F89C32D0F8B83223B15B6801799847D6
:102E140010B908BD0020FCE70320FAE70020704742
:102E24000020704738B504460D46002943D11346A7
:102E3400D0F89422032A01D0084638BDD0F85C119A
:102E4400D0F86021914212D890F8AA3203F01F03FF
:102E5400012B17D0022B1CD0284694F89C32DBB2ED
:102E6400032B1BD0204600F08FFC2846E5E7891A87
:102E7400C0F85C118A4228BF0A46194600F07CFC5F
:102E84002846DAE790F8AE12FFF7C8FF0028E9D128
:102E9400E3E790F8AE12FFF7C3FFF7E700F1AE03E4
:102EA40054F823301A69002ADCD0C4F8D4021B6910
:102EB40020469847D6E701F07F01FFF7B1FF90B9AC
:102EC40094F89C32DBB2032BB7D100F1AE0354F873
:102ED40023309A69002AB0D0C4F8D4029B692946E9
:102EE40020469847A9E70020A7E738B504460D46D1
:102EF40000294BD11346D0F89422022A07D094F823
:102F0400A00218B1002384F8A032284638BDC26953
:102F1400016A8A420ED88A4218D094F89C32DBB2F5
:102F2400032B27D080212046FDF7C8FC204600F063
:102F340036FCE4E7521AC261194600F006FC00238D
:102F44001A4619462046FDF7D9FCD8E78369994209
:102F5400E3D8D0F898229342DFD20022114600F041
:102F6400F4FB0021C4F898120B460A462046FDF7EC
:102F7400C5FCC4E7D4F8B832DA68002AD2D00022FB
:102F8400C4F8D422DB6820469847CBE741F080019F
:102F9400FFF746FF90B994F89C32DBB2032BB5D10E
:102FA40000F1AE0354F823305A69002AAED0C4F8B5
:102FB400D4025B69294620469847A7E70020A5E785
:102FC40003780A8813440B800378184470474288B6
:102FD40003789A4218D930B583B004460D46ADF84B
:102FE40006306388BDF806209A420AD20DF1060124
:102FF400FFF7E6FF4378052BF3D18378AB42F0D19A
:1030040000E0002003B030BD0020704703460020DC
:1030140002E00130C0B201331A78002AF9D17047B6
:103024000B7803704B7843708B78CA7843EA022399
:1030340043800B794A7943EA022383808B79CA79E6
:1030440043EA0223C380704710B504468021FDF78C
:1030540035FC00212046FDF731FC10BD30B583B0AE
:1030640004460D460023ADF806304A88130A013B96
:10307400062B00F2AB80DFE803F0041F33A9A98D0F
:103084009A00D0F8B4321B680DF10601007C984711
:10309400EA88002A00F0A380BDF80630002B00F077
:1030A40099809A4228BF1A46ADF806200146204668
:1030B40000F03EFB03B030BD037C43B9D0F8B83216
:1030C4009B6A0DF10600984702234370E0E7D0F8AD
:1030D400B832DB6A0DF10600984702234370D7E744
:1030E400D2B2052A52D8DFE802F003101D2A374471
:1030F400D0F8B4325B6823B10DF10601007C984727
:10310400C6E72946FFF7A0FFD4E7D0F8B4329B689E
:1031140023B10DF10601007C9847B9E72946FFF772
:1031240093FFC7E7D0F8B432DB6823B10DF1060191
:10313400007C9847ACE72946FFF786FFBAE7D0F84A
:10314400B4321B6923B10DF10601007C98479FE757
:103154002946FFF779FFADE7D0F8B4325B6923B1B4
:103164000DF10601007C984792E72946FFF76CFFB2
:10317400A0E7D0F8B4329B6923B10DF10601007CBD
:10318400984785E72946FFF75FFF93E72946FFF74E
:103194005BFF8FE7037C33B9D0F8B8325B6B0DF17A
:1031A4000600984774E72946FFF74EFF82E7037C41
:1031B40043B9D0F8B8321B6B0DF1060098470723CA
:1031C400437065E72946FFF73FFF73E72946FFF79A
:1031D4003BFF6FE729462046FFF736FF6AE72046A4
:1031E40000F0D2FA66E738B504468B88FBB9CB8881
:1031F400EBB94B887F2B1AD803F07F0590F89C32EB
:10320400DBB2032B0CD080F89E522946FDF766FBF7
:10321400204600F0B9FA35B1022384F89C3209E063
:10322400FFF712FF06E0012384F89C3202E02046F7
:10323400FFF70AFF38BD000070B504460E468D78CE
:103244002F4B1D70012D10D890F89C32DBB2022B4D
:103254000FD0032B26D0FFF7F7FE294B1978204611
:10326400FFF70AFD0325284670BDFFF7EDFE032591
:10327400F9E7A5B145602946FFF7F5FC054638B1E5
:1032840031462046FFF7E0FE022384F89C32EAE749
:10329400204600F079FA032384F89C32E3E700F037
:1032A40073FAE0E7CDB141688D4225D0C9B2FFF78A
:1032B400E3FC134B197861602046FFF7D4FC054604
:1032C400B0B131462046FFF7BFFE21792046FFF713
:1032D400D3FC022384F89C32C5E7022380F89C3295
:1032E40045602946FFF7C8FC204600F04DFABAE7CE
:1032F400204600F049FAB6E700F046FA0025B2E7A6
:10330400F014002008B5CB88012B0BD190F89C3227
:10331400DBB2022B09D9032B09D10122011D00F0D4
:1033240007FA01E0FFF790FE08BD5BB213B9FFF79F
:103334008BFEF9E70146002341F8083F012200F023
:10334400F7F9F1E708B590F89C32013B022B12D84B
:10335400CB88022B0CD10123C360D0F8A4320BB16B
:103364000323C360022200F10C0100F0E1F908BD5F
:10337400FFF76AFEFBE7FFF767FEF8E708B54B883F
:10338400012B04D0022B07D0FFF75EFE08BDC0F866
:10339400A43200F0F9F9F9E78B881B0A80F8A0320F
:1033A40000F0F2F9F2E708B590F89C32013B022BE9
:1033B40009D84B88012B00D008BD0023C0F8A432E3
:1033C40000F0E2F9F8E7FFF73FFEF5E738B50C78CF
:1033D40004F06004202C06D0402C04D06CB1FFF71C
:1033E40033FE002407E0D0F8D432AE3350F8233053
:1033F4009B6898470446204638BD4D78092D1DD852
:10340400DFE805F012191C161C08051C0F0BFFF74A
:1034140025FEF0E7FFF7E7FEEDE7FFF70DFF0446B3
:10342400E9E7FFF76FFFE6E7FFF78CFF2C46E2E7DB
:10343400FFF7A4FFDFE7FFF7B6FFDCE7FFF704FEC3
:10344400D9E770B505460C460B7803F06003202BD2
:1034540007D0402B05D023B1FFF7F6FD00263046F8
:1034640070BD95F89C32013B022B26D821790129A5
:1034740005D921462846FFF7E7FD0026EFE7284651
:10348400FFF7CCFC68B900F1AE0255F82220916830
:1034940089B1C5F8D4029368214628469847064660
:1034A40000E00326E388002BD9D1002ED7D128468B
:1034B40000F06AF9D3E70326F4E721462846FFF72C
:1034C400C3FD0026CBE72DE9F04106460D468B8867
:1034D400DFB20C7804F06004202C08D0402C06D015
:1034E400DCB1FFF7B1FD00242046BDE8F081394688
:1034F4003046FFF795FC0446002840F0F880C6F8F3
:10350400D40200F1AE0356F823309B68002BEBD0B5
:103514002946304698470446E6E791F80180B8F119
:10352400010F31D0B8F1030F05D0B8F1000F67D007
:10353400FFF78AFDD8E790F89C32DBB2022B04D067
:10354400032B12D0FFF780FDCEE70FB1802F04D1FB
:1035540029463046FFF778FDC6E73946FDF7AEF950
:1035640080213046FDF7AAF9BEE74B8823B91FB185
:10357400802F01D0CB881BB1304600F005F9B3E7AA
:103584003946FDF79BF9F7E790F89C32DBB2022B42
:1035940004D0032B12D0FFF757FDA5E70FB1802FFE
:1035A40004D129463046FFF74FFD9DE73946FDF724
:1035B40085F980213046FDF781F995E74B88002B8A
:1035C40092D117F07F0F17D1304600F0DDF839465D
:1035D4003046FFF725FC002886D1C6F8D40200F156
:1035E400AE0256F822209268002A00F08280294612
:1035F40030469047044677E73946FDF767F9E3E735
:1036040090F89C22D2B2022A05D0032A27D0FFF7D1
:103614001BFD444668E70FB1802F13D113F0800FD0
:1036240014D107F07F0707EB8707B90001F5A871EC
:103634003144043100230B600222304600F078F854
:10364400444651E7FFF700FD44464DE707F07F0786
:1036540007EB8707B900103131440431EAE75BB264
:10366400002B1FDB07F00F0202EB820200EB820249
:10367400B2F864211AB3002B25DB07F07F0303EBB8
:1036840083039C0004F5A874344404340FB1802FE0
:1036940022D10023236002222146304600F048F85C
:1036A400444621E707F00F0202EB820200EB82029C
:1036B400928C002ADFD1FFF7C7FC444614E7FFF7DA
:1036C400C3FC444610E707F07F0303EB83039C002D
:1036D400103434440434D9E739463046FDF7A6F8AB
:1036E40010B101232360D6E700232360D3E700242D
:1036F400FAE60446F8E6D0B170B50D46164604461F
:10370400FFF784FC431C5B009BB233802B700323C4
:103714006B70022307E0EA5401345A1CD2B2002130
:10372400A9540233DBB22278002AF4D170BD704769
:1037340008B513460222C0F894228361C3610A4685
:103744000021FDF7D3F8002008BD08B513460A464A
:103754000021FDF7CBF8002008BD08B5134603226D
:10376400C0F89422C0F85831C0F85C310A460021F0
:10377400FDF7C4F8002008BD08B513460A46002129
:10378400FDF7BCF8002008BD08B50422C0F8942257
:1037940000231A461946FDF7A9F8002008BD08B50C
:1037A4000522C0F8942200231A461946FDF7A6F80C
:1037B400002008BD10B5D0F8D43203F1B00250F89F
:1037C40022408CB100EB820043687BB194F8000284
:1037D400FF280DD09B6894F8012221469847FF23C7
:1037E40084F80032002010BD0320FCE70020FAE733
:1037F4000020F8E70A23038000487047EC0000200B
:10380400F8B506460F4F82213846FFF7E0FB054620
:1038140001213846FFF7DBFB044681213846FFF7D8
:10382400D6FB0DB11022AA711CB1402222710022D4
:10383400627118B140220271002242714323338025
:103844000048F8BDA8000020F8B506460F4F8221B5
:103854003846FFF7BCFB054601213846FFF7B7FBA6
:10386400044681213846FFF7B2FB0DB11022AA713C
:103874001CB1402222710022627118B140220271EF
:1038840000224271432333800048F8BDA800002081
:10389400F8B506460F4F82213846FFF798FB0546D8
:1038A40001213846FFF793FB044681213846FFF790
:1038B4008EFB0DB11022AA711CB1002222710222CA
:1038C400627118B1002202710222427143233380D3
:1038D4000048F8BDA800002038B5D0F8D432B03381
:1038E40050F8235095B10446FCF7B7FFC5F80C0215
:1038F400D4F8D432B03304EB83046368DB6805F591
:103904000371D5F804029847002038BD0320FCE772
:1039140038B5D0F8C852D0F8D432B03350F8234078
:1039240084B301F00F0303EB830200EB820292697C
:103934004AB103EBC30C05EB8C05AD6CB2FBF5FC93
:1039440005FB1C2292B10023C4F81432D0F8D432FF
:10395400B03300EB830043681B69ABB10A4604F53E
:103964000471D4F808029847002038BD03EB8303A0
:1039740000EB830300249C6123462246FCF7B6FF38
:103984002046F2E70320F0E70020EEE7F0B583B02D
:10399400D0F8D43203F1B00250F8227000228DF82E
:1039A4000720ADF80420002F7BD004460D4609788B
:1039B40011F0600634D0202E6CD1EA882AB311F0BD
:1039C400800F07D16B7887F80032EA883F2A13D832
:1039D400D2B212E0B03300EB83035B689B683946D4
:1039E40068789847EA88072A28BF0722394620467C
:1039F400FFF79EFE002651E0402287F80122394657
:103A04002046FFF7AAFE002648E0B03300EB83030C
:103A14005B689B68002229466878984700263DE049
:103A24006F780B2F31D8DFE807F0063930303030AB
:103A340030303030162690F89C32DBB2032B04D0A1
:103A44002946FFF701FB032628E0022201A9FFF71C
:103A54006FFE3E4622E090F89C32DBB2032B04D08A
:103A64002946FFF7F1FA032618E001220DF10701B8
:103A7400FFF75EFE12E090F89C32DBB2032B0DD010
:103A84002946FFF7E1FA032608E02946FFF7DCFAA6
:103A9400032603E02946FFF7D7FA0326304603B08E
:103AA400F0BD0326FAE738B504468121FCF7FEFE93
:103AB4000025258701212046FCF7F8FEA4F878515B
:103AC40082212046FCF7F2FEA4F84C50A4F84E5094
:103AD400D4F8D43203F1B00254F822209AB1B033AE
:103AE40004EB83035B685B689847D4F8D432B03343
:103AF40054F82300FCF7BCFED4F8D432B03344F8B5
:103B04002350C4F8BC52002038BD70B504464FF4AD
:103B14000770FCF7A9FE002849D005464FF4077248
:103B2400002100F015F9D4F8D432B03344F823500E
:103B3400C4F8BC52237C002B41D14FF40073022201
:103B440081212046FCF7A7FE012626874FF4007347
:103B5400022231462046FCF79EFEA4F87861102329
:103B6400A4F84E300823032282212046FCF793FE5A
:103B74000123A4F84C300026C5F80462D4F8D432EA
:103B8400B03304EB83035B681B689847C5F8146281
:103B9400C5F81862D5F8042262B3257C1DBB4FF426
:103BA400007301212046FCF7A9FE284670BDD4F815
:103BB400D432B033002244F823200225F5E7402311
:103BC400022281212046FCF766FE01262687402337
:103BD400022231462046FCF75EFEA4F878611023E9
:103BE400A4F84E30BEE7402301212046FCF786FEB0
:103BF4000025DAE70225D8E739B1D0F8D432B0335A
:103C040000EB830041600020704703207047D0F828
:103C1400D432B03350F823302BB1C3F80812C3F8B0
:103C240010220020704703207047D0F8D432B033FC
:103C340050F823301BB1C3F804120020704703204E
:103C4400704708B5D0F8D432B03350F823209AB175
:103C5400D2F814320BB1012008BD0123C2F814328A
:103C6400D2F81032C362D2F81032D2F8082281217D
:103C7400FCF73CFE0020EFE70320EDE710B5D0F899
:103C8400D432B03350F8232092B1047C44B94FF4B9
:103C94000073D2F804220121FCF730FE204610BD47
:103CA4004023D2F804220121FCF728FE0024F5E782
:103CB4000324F3E7DFF834D00D480E490E4A0023FD
:103CC40002E0D458C4500433C4188C42F9D30B4ACC
:103CD4000B4C002301E013600432A242FBD3FEF735
:103CE40083FF00F011F8FCF7F5FA7047000001209B
:103CF40000000020F8000020AC400008F80000207C
:103D0400F4140020FEE7000070B50D4D0D4C641B4B
:103D1400A4100026A64209D10B4D0C4C00F084F9E6
:103D2400641BA4100026A64205D170BD55F8043BBF
:103D340098470136EEE755F8043B98470136F2E719
:103D4400A4400008A4400008A4400008A8400008BB
:103D540002440346934200D1704703F8011BF9E77C
:103D64002DE9F047089E0D4604460F46002B4AD124
:103D74008A42944665D9B2FA82F343B102FA03FC4B
:103D8400C3F120029F4020FA02F217439C404FEAFD
:103D94001C4E1FFA8CF5B7FBFEF1220C0EFB1177BB
:103DA40042EA074201FB05F090420AD91CEB0202E9
:103DB40001F1FF3780F01C81904240F219810239F1
:103DC4006244121AA4B2B2FBFEF00EFB102244EAC3
:103DD400024400FB05F5A5420AD91CEB040400F1DA
:103DE400FF3280F00781A54240F204816444023826
:103DF40040EA0140641B00211EB1DC400023C6E9F7
:103E04000043BDE8F0878B4208D9002E00F0ED8016
:103E14000021C6E900050846BDE8F087B3FA83F13E
:103E2400002949D1AB4202D3824200F2F880841ABD
:103E340065EB030201201746002EE2D0C6E90047D5
:103E4400DFE702B9FFDEB2FA82F3002B40F0908084
:103E54008A1A4FEA1C471FFA8CFE0121B2FBF7F5C0
:103E640007FB1520220C42EA00420EFB05F09042AB
:103E740008D91CEB020205F1FF3802D2904200F28D
:103E8400CB804546121AA4B2B2FBF7F007FB10220E
:103E940044EA02440EFB00FEA64508D91CEB0404C8
:103EA40000F1FF3202D2A64500F2BB801046A4EB1B
:103EB4000E0440EA05409FE7C1F120078B4022FA37
:103EC40007FC4CEA030C05FA01F420FA07F3FD4061
:103ED4004FEA1C492343B5FBF9F81FFA8CFE09FB92
:103EE40018551C0C44EA054408FB0EF5A54202FAD9
:103EF40001F200FA01F00BD91CEB040408F1FF3ABB
:103F040080F08880A54240F28580A8F102086444CC
:103F1400641B9DB2B4FBF9F309FB134445EA044462
:103F240003FB0EFEA64508D91CEB040403F1FF3580
:103F34006CD2A6456AD9023B644443EA0843A3FB16
:103F44000295A4EB0E04AC42C846AE4656D353D0F9
:103F540056B1B0EB080264EB0E0404FA07F7CA404A
:103F6400CC401743C6E9007418460021BDE8F08729
:103F7400C3F1200102FA03FC20FA01F225FA01F14F
:103F84009D402A434FEA1C471FFA8CFEB1FBF7F011
:103F940007FB1015110C41EA054100FB0EF58D429B
:103FA40004FA03F408D91CEB010100F1FF382FD205
:103FB4008D422DD902386144491B92B2B1FBF7F509
:103FC40007FB151142EA014205FB0EF1914208D9A3
:103FD4001CEB020205F1FF3816D2914214D9023DBE
:103FE4006244521A45EA004138E73146304608E750
:103FF4003946E6E61046FBE64845A9D2B9EB020885
:1040040065EB0C0E013BA3E74546EAE72B4694E734
:104014004046D1E7D0467BE7023D624432E708469A
:104024000AE76444023842E7F8B500BFF8BC08BCAC
:104034009E467047F8B500BFF8BC08BC9E46704762
:1040440053544D3332205669727475616C20436F3A
:104054006D506F727400000053544D6963726F6544
:104064006C656374726F6E6963730000434443202C
:10407400436F6E666967000043444320496E74656C
:10408400726661636500000000000000000000002B
:084094000102030406070809FC
:08409C00C8FCFF7F01000000D9
:0440A40031020008DD
:0440A8000902000801
:1040AC00A9040008B50400087905000855050008A6
:1040BC004105000895050008B90500081201000229
:1040CC000202004083044057000201020301000079
:1040DC00040309041A0300000000000000000000A3
:1040EC0000000000000000000000000000000000C4
:1040FC0015060008DD050008E1050008E9050008C3
:10410C00E505000801000000100000000024F40088
:10411C000F3B0008AB3A0008913900080000000082
:10412C00B937000815390008DD3800080000000018
:10413C000000000000000000953800084D38000811
:10414C0005380008F937000809024300020100C0D5
:10415C0032090400000102020100052400100105CF
:10416C002401000104240202052406000107058233
:10417C000308001009040100020A000000070501F1
:10418C000240000007058102400000000A06000200
:08419C000000004001000000DA
:0400000508003CB9FA
:00000001FF
